:020000040000fa
:080000000001040000000000f3
:020000040000fa
:040008002c030000c5
:020000040000fa
:04000c002c030000c1
:020000040000fa
:040010002c030000bd
:020000040000fa
:040014002c030000b9
:020000040000fa
:040018002c030000b5
:020000040000fa
:04001c002c030000b1
:020000040000fa
:040020002c030000ad
:020000040000fa
:040024002c030000a9
:020000040000fa
:040028002c030000a5
:020000040000fa
:04002c002c030000a1
:020000040000fa
:040030002c0300009d
:020000040000fa
:0400340008020000be
:020000040000fa
:040038002c03000095
:020000040000fa
:04003c002c03000091
:020000040000fa
:040040002c0300008d
:020000040000fa
:040044002c03000089
:020000040000fa
:040048002c03000085
:020000040000fa
:04004c002c03000081
:020000040000fa
:040050002c0300007d
:020000040000fa
:040054002c03000079
:020000040000fa
:040058002c03000075
:020000040000fa
:04005c002c03000071
:020000040000fa
:040060002c0300006d
:020000040000fa
:040064002c03000069
:020000040000fa
:040068002c03000065
:020000040000fa
:04006c002c03000061
:020000040000fa
:040070002c0300005d
:020000040000fa
:040074007202000014
:020000040000fa
:040078002c03000055
:020000040000fa
:04007c002c03000051
:020000040000fa
:040080002c0300004d
:020000040000fa
:040084002c03000049
:020000040000fa
:040088002c03000045
:020000040000fa
:04008c002c03000041
:020000040000fa
:040090002c0300003d
:020000040000fa
:040094002c03000039
:020000040000fa
:040098002c03000035
:020000040000fa
:04009c002c03000031
:020000040000fa
:0400a0002c0300002d
:020000040000fa
:0400a4002c03000029
:020000040000fa
:0400a8002c03000025
:020000040000fa
:0400ac002c03000021
:020000040000fa
:0400b0002c0300001d
:020000040000fa
:0400b4002c03000019
:020000040000fa
:0400b8002c03000015
:020000040000fa
:0400bc002c03000011
:020000040000fa
:0400c0002c0300000d
:020000040000fa
:0400c4002c03000009
:020000040000fa
:0400c8002c03000005
:020000040000fa
:0400cc002c03000001
:020000040000fa
:0400d0002c030000fd
:020000040000fa
:0400d4002c030000f9
:020000040000fa
:0400d8002c030000f5
:020000040000fa
:0400dc002c030000f1
:020000040000fa
:0400e0002c030000ed
:020000040000fa
:0400e4002c030000e9
:020000040000fa
:0400e8002c030000e5
:020000040000fa
:0400ec002c030000e1
:020000040000fa
:0400f0002c030000dd
:020000040000fa
:0400f4002c030000d9
:020000040000fa
:0400f8002c030000d5
:020000040000fa
:0400fc002c030000d1
:020000040000fa
:040100002c030000cc
:020000040000fa
:040104002c030000c8
:020000040000fa
:040108002c030000c4
:020000040000fa
:04010c002c030000c0
:020000040000fa
:040110002c030000bc
:020000040000fa
:040114002c030000b8
:020000040000fa
:040118002c030000b4
:020000040000fa
:04011c002c030000b0
:020000040000fa
:040120002c030000ac
:020000040000fa
:040124002c030000a8
:020000040000fa
:040128002c030000a4
:020000040000fa
:04012c002c030000a0
:020000040000fa
:040130002c0300009c
:020000040000fa
:040134002c03000098
:020000040000fa
:040138002c03000094
:020000040000fa
:04013c002c03000090
:020000040000fa
:040140002c0300008c
:020000040000fa
:040144002c03000088
:020000040000fa
:040148002c03000084
:020000040000fa
:04014c002c03000080
:020000040000fa
:040150002c0300007c
:020000040000fa
:040154002c03000078
:020000040000fa
:040158002c03000074
:020000040000fa
:04015c002c03000070
:020000040000fa
:040160002c0300006c
:020000040000fa
:040164002c03000068
:020000040000fa
:040168002c03000064
:020000040000fa
:04016c002c03000060
:020000040000fa
:040170002c0300005c
:020000040000fa
:040174002c03000058
:020000040000fa
:040178002c03000054
:020000040000fa
:04017c002c03000050
:020000040000fa
:040180002c0300004c
:020000040000fa
:040184002c03000048
:020000040000fa
:040188002c03000044
:020000040000fa
:04018c002c03000040
:020000040000fa
:040190002c0300003c
:020000040000fa
:040194002c03000038
:020000040000fa
:040198002c03000034
:020000040000fa
:04019c002c03000030
:020000040000fa
:0401a0002c0300002c
:020000040000fa
:0401a4002c03000028
:020000040000fa
:0401a8002c03000024
:020000040000fa
:0401ac002c03000020
:020000040000fa
:0401b0002c0300001c
:020000040000fa
:0401b4002c03000018
:020000040000fa
:0401b8002c03000014
:020000040000fa
:0401bc002c03000010
:020000040000fa
:0401c0002c0300000c
:020000040000fa
:0401c4002c03000008
:020000040000fa
:0401c8002c03000004
:020000040000fa
:0401cc002c03000000
:020000040000fa
:0401d0002c030000fc
:020000040000fa
:0401d4002c030000f8
:020000040000fa
:0401d8002c030000f4
:020000040000fa
:0401dc002c030000f0
:020000040000fa
:0401e0002c030000ec
:020000040000fa
:0401e4002c030000e8
:020000040000fa
:0401e8002c030000e4
:020000040000fa
:0401ec002c030000e0
:020000040000fa
:0401f0002c030000dc
:020000040000fa
:0401f4002c030000d8
:020000040000fa
:0401f8002c030000d4
:020000040000fa
:0401fc002c030000d0
:020000040000fa
:100200002fe522000e7f24000e0188000000000070
:10021000000020000000e000020032000001200089
:1002200020028800140007002e0107000000e000f3
:1002300003003a0020fb21000100200002003700eb
:100240000000200001002000810f7000010032003a
:1002500014000700000020000000e000020032004f
:1002600000000200000000005c140200000000001a
:100270000040da000000fe004440a900c037200022
:100280000000e00003003200002020009001880000
:100290004440a800000006008a1f78008b1f7800e9
:1002a00000000600a1028800800478000000eb0036
:1002b0001f003700e284440054a0b4009905ba003e
:1002c000e284440054a0b4009906ba00e2844400d9
:1002d00054a0b4000006eb00476fde00fd07b2003b
:1002e000ae018800636ce10003003a00eaff0700fa
:1002f0000000eb000e003700606ce10008003a00df
:10030000004deb000a05e800020039003420ec0043
:100310000af0a0008b05e900f9ff3e000400370059
:100320006168e100010032000086eb000b0007006d
:1003300019c7ba001905ba000e04e00003003a001c
:100340000a00e000dbff3a0000000600fe07b200f2
:10035000ae0288008a047800f5ff37000cd0a300b5
:10036000e20f4d001c00390089027800354dba00bb
:100370000a05e800020039003420ec000af0a00071
:100380008b05e9000f003200254dba000a05e80090
:10039000020039003420ec000af0a0008b05e900cf
:1003a000080032000c00e0000600320015cdba0053
:1003b0000a05e800020039003420ec000af0a00031
:1003c0008b05e9008984e80054a0b4000b00e0002c
:1003d000e2ff3a00000006009902ba00055d7800cd
:1003e0008b05e900f7ff3200c82ade00055d7800c2
:1003f0008b05e900f3ff32000c00e000f1ff320052
:1004000019ddba00eeff3700340d040000000000d3
:100410003600f800809fbe00829fbe00849fbe0011
:10042000869fbe003200f8003400f8001000200063
:10043000a001880000202000900188000200fa003e
:1004400004c8bf000004e0000500320010002000d6
:10045000e30707009b0e0700440707000a00370068
:10046000980e070000b028008002eb000002780020
:1004700043c1b30022c3b30011c0b30040c1b300f5
:10048000b30c0700b208070094080700000f7800bb
:100490001e0078000000e00003003a002000200069
:1004a000cf07070006003700b03f20009e0078000d
:1004b000808f50000200340030002000c807070081
:1004c0000080fa003400f9003200f9004f03be004a
:1004d0004f02be004f01be004f00be003600f900c3
:1004e000004006003600f800809fbe00829fbe00dc
:1004f000849fbe00869fbe003200f8003400f800e2
:1005000010002000a0018800002020009001880039
:100510000000fa008133800000802000008060002d
:100520000000e00023003200813380000000210041
:10053000008060000000e0001e0032006706a80096
:100540006726a8000240800013408000f09f2c0026
:10055000a1b92300800f5100818f590011003e0086
:1005600000408000114080006a09b9000201780053
:100570006002b9008401780003014100a30020005b
:100580000300b800010141008200780000408800ab
:100590001140880000408000114080000000780079
:1005a000900c88007166a9007186a9006706a900f1
:1005b0006726a90081338000008020000080600051
:1005c0000000e0000b0032008133800000002100b9
:1005d000008060000000e00006003a006706a80006
:1005e000400020007e0707007166a9006706a90089
:1005f0000f00370081338000000021000080600080
:100600000000e0000a0032008133800000802000fa
:10061000008060000000e00005003a006726a800a6
:10062000500020006e0707007186a9006726a90008
:100630008a60a9000080fa003400f9003200f90055
:100640004f03be004f02be004f01be004f00be0070
:100650003600f900004006000040da000000fe000d
:10066000889fbe0080047800807281000000e00056
:1006700004003a000e0007000084eb000000e000d8
:1006800008003500887281000900e0000500320092
:1006900009004400060007000000e00001003d00e2
:1006a0000084eb00080078004f04be000000060044
:1006b000800078000100e00003003a000000200004
:1006c00080728900000005000080eb00020020001d
:1006d000828f500002003e00817289000000eb0012
:1006e0000000060000000500889fbe008a9fbe0033
:1006f0008c1f78009d000700a400330003866c0067
:100700006450e1002e0032006420e100330032002a
:100710006150e1002f0032006120e1003100320021
:1007200085855500eb07b000090020000804200073
:10073000050037000804440089844c000a00310099
:100740000603430087834b000001530081815b0057
:10075000f8ff33000203be000800a00008044400b4
:1007600089844c00f6ff3900c639dd00830173002f
:1007700001003200130020008904d1000884d30056
:100780000998a300050032000800a7000300a0009c
:100790008904d1000884d3008b05e8008904d100c6
:1007a0000884d3000001eb000281d200340007006e
:1007b00001f0a1000cf0a70001f0a0007c003700c0
:1007c0006420e1007e0032000801be000200be008d
:1007d000f7ff37006120e100790032006000b800c7
:1007e000f3ff37000000200001f82700f0ff37007a
:1007f0000001be00480007000470a70003f0a1003c
:100800006509b100160032000d0035006828e100ce
:1008100006003500f0ff2f00f1ff27000300e00085
:1008200013003b000100280000000500000040000c
:10083000818048008502e900fcff3a00080037008b
:10084000f88f420002003c008000eb000000050031
:100850008100d1000080d3008502e800fcff3a004f
:100860000300e00002003b0060001000e080180080
:10087000000006004f89de00820178008700370003
:1008800081002000618055000b003d000b0020001e
:1008900061fe2f000100e1001d0034008281710023
:1008a000610164008904d1000884d3000000e800dd
:1008b000faff3a007100200061006400030070003c
:1008c000020060000900320061044400e0844c0032
:1008d0000988a500050032008b05e8006808e100e2
:1008e00002003a008904d1000884d300f20f2000ee
:1008f0000258e10005003d00c75ddd00f907b200c8
:100900008980750008007800000006000bf82700b9
:100910008b00780000000500c70ade00f107b20076
:10092000f50fb20008003200e1cf420002003200b1
:100930000170a00024000500810f7000010032004a
:100940000408050044000500810f700002003a0011
:10095000140005008502e9000000400081c0480045
:10096000fcff3b000170a000240005000004be0055
:10097000e9ff07000003be000405be000200be0040
:10098000e5ff0700844f7500000006000200be006e
:100990006450e100050036006420e10002003600ea
:1009a0000968a30001003a000800be000160a00031
:1009b0004f0678004f05be004f04be000000060041
:1009c000f0ff2f00f1ff2700f9ff3700889fbe00de
:1009d0008a9fbe008c1f7800e4ff0700ebff330006
:1009e00003866c006450e100240032006420e100c2
:1009f000270032006150e100220032006120e10056
:100a0000210032008b854200eb07b1000134b800b1
:100a1000003ab8000804420089844a00013ab8004c
:100a20000030b8008880400009014a00040033000b
:100a30000000400081804800020149008b05e90068
:100a4000c909dd008301700001003200130020009d
:100a5000c814de004814dd004709de001200b200b1
:100a6000c808de000884700085ff070001f0a100bf
:100a70000cf0a70001f0a000cdff37006120e100dd
:100a8000cfff32000801be000200be00f7ff3700b2
:100a90006150e100fcff3a00c9ff3700881f780071
:100aa000030478000300e00007003d006000100030
:100ab000e080180060011900e081190002003b008d
:100ac00001f02d00030037000400070008f0a70024
:100ad00001f0a0004f04780000000600889fbe00cf
:100ae0008a9fbe00008270000402710004827100bf
:100af000260032000004be000200be006011b800f3
:100b00006b092000950220000182cf000a00390005
:100b10000541b1000082cf00070039000541b10056
:100b20000982cf00040039000541b1000882cf00de
:100b3000010039000541b1000542520012003200a7
:100b40000a003b0082817100610164008100d100d4
:100b50000080d3008984d3000884d3008b05e8008b
:100b60000442e800f7ff3a00070037000804440099
:100b700089844c0000004800818048008b05e90012
:100b80000442e900f9ff3a003dff07004f05be00af
:100b90004f04be00000006000000e0002f003200fd
:100ba000c0017800e38f51002c0036000308a30039
:100bb0002a003a00417281000100e0000200320088
:100bc000810f50000400310011009800407289002c
:100bd0001600370082007800110190000200e0004a
:100be00002003200800f5100faff39001102780034
:100bf00084824000850f500018003900808f520019
:100c000003003a0083084200010078000700370023
:100c10000200e0000300320083014000830f510016
:100c20000e0039001200980090009800900090008b
:100c30000100e0000900320010014000828f5000e6
:100c400006003a0062e422000009eb00100178007f
:100c5000110841009100900011009800000006006a
:100c6000889fbe0000047800317281000100e0001e
:100c700002003200010078000d003700417281004f
:100c800080e4220004003700910f54002500360054
:100c90000180e800910090000100e000faff3a00b6
:100ca00010003700920f54001e0036000280e8004a
:100cb000100178000200e000faff3a00110178000c
:100cc0004172810080e4220004003700910f54003b
:100cd000140036000180e80091009000828f5000df
:100ce000faff3a0079728100888f540001003100c8
:100cf0008804780009007800840007000000e00004
:100d000004003a00888f5400050032008904d100a5
:100d1000f5ff3700091878009fff0700d2ff370062
:100d20000000eb004f04be0000000600881f7800a2
:100d3000630440000800a1008000eb00800f540015
:100d400021003600e30f540001003e00480020005f
:100d500008007800c2ff07008000eb000000e00000
:100d600019003200900078009101780064815100f0
:100d7000880f510003003100110190000208780033
:100d800007003700088140000208780091019000b8
:100d900013019800100178001109140088087800e8
:100da000100178000000eb000200e00004003200b7
:100db000920190000300e000010032000280e80090
:100dc000307289008180e800010078004f047800cb
:100dd000000006008001780002003700b159780059
:100de0000201e9000200e000fcff3a0000000600fa
:100df000889fbe00f06d81000000e000010032001d
:100e000000000100006e81000000e00001003200df
:100e100000000100c0db22001004e00022003a00c4
:100e2000507281006172810088002000d26026002b
:100e3000930120003f000700f2352f00e3c6230096
:100e400000004100818049000804e900f7ff3a00f2
:100e500028dc22000908200088844400d260260093
:100e60009301200033000700f2352f00e3c6230072
:100e7000000041008180490000acbe00890f540091
:100e8000f6ff3a0050728900617289001072810089
:100e900021728100106e8900216e890011c0b3009b
:100ea000c0db220001487800d260260093012000b8
:100eb00050728100617281001e000700f2352f0020
:100ec000e3c6230000024100818249005472890078
:100ed0006572890020dc2200100078007f0160002c
:100ee0004211dd0060dc2200020140001200be0061
:100ef000106e8900216e89000489be00010078000f
:100f000000f0a1004f04be00000006008000780041
:100f10000000eb000100e000050034000100780053
:100f2000cffd0700e10f400001003a000000eb0098
:100f300000000600020ab900001bb9000200b80058
:0c0f400081004200810043000000060018
:020000040000fa
:100f4c005f5f0000050800000000000000000000ca
:100f5c000000000000fa00000000000000e00000ab
:100f6c0000e0000000280000fe280000fe28000021
:100f7c0024540000fe54000048c40000c8100000b7
:100f8c00264600006c9200006a0400000a00000073
:100f9c0010e00000c0000000003800004482000097
:100fac0000000000824400003800000054380000ab
:100fbc00fe38000054100000107c000010100000df
:100fcc00000000000e0c00000010000010100000cb
:100fdc0010100000000000000606000000040000d5
:100fec0008100000204000007c8a000092a2000043
:100ffc007c00000042fe0000020000004e92000047
:10100c00929200006284000082920000b2cc000038
:10101c001828000048fe000008e40000a2a200000e
:10102c00a29c00003c520000929200008c820000b6
:10103c008488000090e000006c9200009292000006
:10104c006c62000092920000947800000000000096
:10105c002800000000000000022c0000000000002e
:10106c0000100000284400008228000028280000fe
:10107c0028280000008200004428000010400000d6
:10108c00809a0000906000007c820000ba9a0000f8
:10109c00723e000048880000483e0000fe920000ae
:1010ac00929200006c7c000082820000824400005e
:1010bc00fe820000828200007cfe00009292000002
:1010cc0092820000fe90000090900000807c000056
:1010dc00828200008ace0000fe100000101000007a
:1010ec00fe00000082fe00008200000004020000ee
:1010fc0082fc000080fe00001028000044820000ea
:10110c00fe0200000202000002fe00004038000057
:10111c0040fe0000fe20000010080000fe7c0000d5
:10112c0082820000827c0000fe9000009090000003
:10113c00607c0000828a0000847a0000fe9000002f
:10114c00989400006264000092920000924c00009f
:10115c00c0800000fe800000c0fc00000202000005
:10116c0002fc0000f804000002040000f8fc00007f
:10117c00021c000002fc0000c62800001028000021
:10118c00c6c00000201e000020c00000869a00008f
:10119c0092b20000c2000000fe82000082820000b9
:1011ac0040200000100800000400000082820000b3
:1011bc0082fe000020400000804000002002000061
:1011cc00020200000202000000c00000e01000005b
:1011dc00000400002a2a00001c020000fe1400007b
:1011ec00222200001c1c00002222000022140000fd
:1011fc001c22000022140000fe1c00002a2a000001
:10120c002a180000001000007e9000004030000002
:10121c004a4a0000523c0000fe1000002020000052
:10122c001e00000022be00000200000004020000ac
:10123c0002bc000000fe00000814000022000000a8
:10124c0000820000fe020000003e0000201e000094
:10125c00201e00003e100000202000001e1c00007c
:10126c0022220000221c00003e1800002424000052
:10127c001818000024240000183e00003e10000046
:10128c0020200000101200002a2a00002a2400004e
:10129c0020200000fc220000243c00000202000080
:1012ac00043e00003804000002040000383c00003a
:1012bc00020c0000023c0000221400000814000084
:1012cc00223200000a0a00000a3c0000222600001c
:1012dc002a32000022000000106c00008200000086
:1012ec0000000000fe00000000000000826c000006
:1012fc001000000040800000402000004000000072
:10130c00dff700005aff0000ff070000fa7f000023
:10131c00fff70000bbf7000038ff000000000000e2
:10132c0059ff00001f0000005c89000045a100006f
:10133c00d0dd0000f45c0000e07f000043d300002f
:10134c00eafb0000bd640000dbff0000a7d8000032
:10135c00ff070000110000005104000021bc000038
:10136c0055ad00002003000055ad0000adbd0000e0
:10137c00118800004553000060fc000099990000a2
:10138c0000880000afec0000f18d0000f149000076
:10139c00692a0000692a00007a0600001a900000f1
:1013ac00b2f80000ff0500004d6b00004d6b000013
:1013bc009f1c000004b10000deff0000442400006c
:1013cc001ff80000fbde0000dfff0000a0fe0000a5
:1013dc0024dd00001084000000040000e5af0000d4
:1013ec0010840000fef7000056fb0000ebca000062
:1013fc0010480000feff000031f700003fe700003e
:10140c009eff0000e07f0000d9ff0000dcae000072
:10141c0010f40000ffe70000daff00009ad600008d
:10142c00729700009ad60000b8fd00000ffd000076
:10143c00952500007f860000537400005374000053
:10144c003bb60000fcff0000e00700006636000021
:10145c009cff00001ff80000008000007566000073
:10146c0019000000baba00009b9300008e3d0000ea
:10147c005d7b0000d3070000994e0000b0c0000057
:10148c00ce180000fff700003cff000036ff000004
:10149c00f5fe000010000000bcff000000840000fe
:1014ac00646c000020fd000020fa00009adb0000b4
:1014bc0055ef0000d39f00007daf000092db0000d1
:1014cc007aff0000d7fe000027cc000019fe0000b8
:1014dc001bdd00001cb700001080000000f80000ad
:1014ec0071bc00005c430000228a00000efc00006e
:1014fc002cf500004a2c0000bdff000085a2000066
:10150c0018c600007d860000d96a00001274000025
:10151c0012740000dfff0000ef070000164400000b
:10152c00b1d5000010040000fbdd000008fb00003a
:10153c001a4700001dec0000f6f60000ffff00004b
:10154c00bef7000043d30000669e000001000000bf
:10155c00eafb0000e82c0000060000000000000080
:10156c0000000000020000001f0000000c2d000015
:10157c000600000000000000000000000300000056
:10158c0000040000302d00000600000000000000e8
:10159c00000000000400000019fe0000542d0000a3
:1015ac000600000000000000000000000500000024
:1015bc0045a10000782d000006000000000000008e
:1015cc00000000000600000010800000942d0000b8
:1015dc0004000000000000000000000007000000f4
:1015ec0000880000ac2d0000080000000000000086
:1015fc000000000054520000592000004147000038
:10160c00414900004e000000474100004d450000dc
:10161c002053000054410000525400000000000010
:10162c00200100000000000000000000200100006c
:08163c000f0000000000000097
:020000040000fa
:101644000000fa00780b070040548400390a0700b0
:101654001b0a07006366a8006386a8006306a90046
:101664006326a90095e1a80095a1a8009421a900ea
:10167400a10c80000003200001007000a00c880071
:10168400004080001140800000007800900c880029
:101694008860a90041058000f0ff280000806000f8
:1016a40000c0a000400588009860a80083e0a8005e
:1016b4009206a800413a8000f0ff230000806000f9
:1016c400403a880049a7a90000c0eb004ae7b700e8
:1016d400313a8000f0f02f0000806000303a88003a
:1016e400513a8000f00f2e000080600000c0a0007e
:1016f400503a8800313a8000f0cf2f00008060001b
:10170400303a8800413a800030f82f0000806000b1
:10171400403a88004747a90047e7a8006206a900a5
:101724006226a9008ae6a900713f800000f82f0014
:1017340000806000d000b300703f8800713f8000db
:10174400f00f28008080600000e02000010070009d
:10175400703f8800513f8000f00f280080806000b7
:1017640000f0200001007000503f88003422ef0098
:1017740090118000f001b3009011880032e2a900ba
:101784008111800000c021000100700080118800d8
:101794008111800080ff2f00008060006000b30092
:1017a4008011880032c2a8003e22ef00e0118000c0
:1017b400f001b300e01188003ce2a900d1118000df
:1017c40000c0210001007000d0118800d1118000f8
:1017d40080ff2f00008060006000b300d0118800fb
:1017e4003cc2a8004822ef0030128000f001b30090
:1017f4003012880046e2a9002112800000c02100b6
:1018040001007000201288002112800080ff2f0048
:10181400008060006000b3002012880046c2a80067
:101824003622ef004022ef004a22ef000080fa0047
:10183400000006000000fa0000002800f0328800d2
:1018440010002000003388006d66a8006d86a80093
:101854008a60a9009a60a8000080fa0000000600cf
:101864001c00fa00881f780000047800010f98001b
:10187400120f9800230f9800340f9800450f98001a
:10188400560f9800f000470064004700c200200093
:101894004ffd07002e089000900078004e00900045
:1018a400100078002200200049fd07003e08900047
:1018b400500798000000eb00000f78001b00370071
:1018c4000000eb001007980013003700ce009000d2
:1018d4001e00780000004000008040009000780066
:1018e4001e009000808040002e0990001e007800a9
:1018f4000000400000004100100178001e0090002c
:101904000000410010407800804878001e009000dc
:101914000000e80010079800de0090001e00900010
:10192400808f5000e9ff3c001e0fe8005e0090002d
:101934009e0f5000e2ff3c006400470088007800de
:10194400b0187800a0107800e480400064004000e3
:10195400b0187800a0107800e480400064004000d3
:10196400b0187800a0107800e480400064004000c3
:10197400080078004f0478000080fa000000060098
:101984000c00fa0019fd0700710020000101780025
:10199400110009000200d8008000fd006c00b900ad
:1019a40080007800c0aa28000080400090007800e1
:1019b40010019000a001900030029000c00290003d
:1019c400500390000e007800a5ff070020002000bf
:1019d400500798000000eb004007980046d3200011
:1019e400c0638100d1638100e2638100f3638100fd
:1019f4000464810015648100060001000e00780073
:101a040081c72200b0187800a0107800e48040005c
:101a140064004000b0187800a0107800e480400012
:101a240064004000b0187800a0107800e480400002
:101a340064004000c0638100d1638100e2638100df
:101a4400f36381000464810015648100430107008d
:101a54000000e00001003a000468ef000080fa0092
:101a6400000006000e00fa001007980021079800f5
:101a740032079800430798005407980065079800b8
:101a84000000eb00000f780007003700be00900054
:101a94001e00780000004000008040001000780024
:101aa4003cfc07001e0fe8004e0090009e0f500003
:101ab400f6ff3c003e00900036fc07000080fa0070
:101ac400000006000400fa000000eb00000f78009c
:101ad400230037000000eb00100798001b003700bc
:101ae400e16381001e007800000040000080400097
:101af400900078001e0090000080400010407800a4
:101b04000004e0000e003200006481009e004000ea
:101b1400126481001e00900000024100c063810035
:101b24000041780083872000000620000088b90067
:101b34000000780004004000008041000248780062
:101b44001e0090000000e80010079800f163810077
:101b54001e009000808f5000e1ff3c001e0fe80043
:101b6400f06381009e0f5000daff3c000080fa0011
:101b7400000006001400fa0040079800510798007e
:101b84006207980073079800040f9800150f9800d7
:101b9400fe009000210798000000eb00000f780081
:101ba400650037009e007800110798005b0037003d
:101bb400ee0090001e00780000004000008040000d
:101bc400900078001e0090000080400010407800d3
:101bd4000000fb0030079800ee0090001e00780023
:101be4000000400000804000900078001e0090003b
:101bf400808040006e0190002e0090008001e9007a
:101c04001e009000008051000000400000004100d0
:101c1400100178001e007800000041001040780098
:101c240080487800ee0090002e0090000001e9004a
:101c34001e009000000051000000400000804000a1
:101c4400900078001e007800808040006e019000b3
:101c54002e0090000000e9001e005000000040002b
:101c640000004100100178002e0090008001e9007e
:101c74001e009000008051000000410010407800d8
:101c840080487800ee0090002e0090000000e900eb
:101c94001e005000000040000080400090007800ca
:101ca4002e0090000001e9001e0090000000510089
:101cb400808040006e0190001e00900000004000f3
:101cc40000004100100178002e0090000000e9009f
:101cd4001e00500000004100104078008048780049
:101ce400ee0090001e0090000000400000804000c4
:101cf400900078002e0090000000e9001e005000c3
:101d040000804000be0090008140780001487800c7
:101d14001e0090000000e800100798002e009000bc
:101d24001e0050008000e9001e009000808f5000cb
:101d34009fff3c001e0fe8002e009000cf00de0045
:101d4400008040000080d1009e0f500095ff3c00b1
:101d54000080fa00000006002200fa00300f98000c
:101d6400410f9800520f9800630f9800740f980069
:101d740005179800ee089000310798006a004700a4
:101d8400c1638100d2638100e3638100f463810055
:101d94000564810016648100b1fe07000000eb00b9
:101da400000f78002d0037009e007800110798007e
:101db40025003700de0890001e0078000000400077
:101dc40000804000900078001e00900000804000d9
:101dd40090407800014f9800de0890001e007800c3
:101de4000000400000804000900078001e00900039
:101df400808040005e0990001e00900000004000ba
:101e040000004100100178001e007800000041002d
:101e14001040780080487800de0890001e00900092
:101e24000000400000804000900078001e00780010
:101e3400008040008e489000014878001e00900009
:101e44000000e800100798009e0090003e009000fb
:101e5400808f5000d7ff35001e0fe8003e00900031
:101e64009e007800808f5000cfff35000000eb000b
:101e740020079800330037000000eb00000f7800c3
:101e84003e0090000000e90010079800260037008b
:101e9400de0890001e007800000040000080400032
:101ea400900078002e009000008040009040780060
:101eb400114f9800de0890001e00780000004000da
:101ec40000804000900078002e0090008080400048
:101ed4005e0990001e0090000000400000004100d8
:101ee400100178002e00900000004100104078009e
:101ef40080487800de0890001e009000000040003a
:101f040000804000900078002e0090000080400087
:101f14009e489000014878001e0fe8001e009000c3
:101f24000000e900100798001e0090009e00780051
:101f3400808f5000d6ff35002e0090000000e8008e
:101f440020079800ae0090003e009000808f500063
:101f5400c9ff35000080fa00000006001200fa00f4
:101f640030079800410798005207980063079800cb
:101f740074079800050f9800de0090002107980070
:101f84000000eb00000f7800400037000000eb0079
:101f940010079800380037008e0890001e0090004b
:101fa400008040000000e0000b0035008e08900027
:101fb4001e00900080804000f0052000808f5000bb
:101fc40005003c007e0090009e004000f0052000cb
:101fd400808f50000c0034001e0078000000400088
:101fe400ae00900000804000900078001e00900039
:101ff40000804000104078000004e0001b00320024
:102004000000eb00250037007e0090009e00400099
:102014000e0990001e0090000001410000062000ff
:102024000088b90000007800020040008187200089
:10203400614078000004e0000c0032001e007800cb
:1020440000004000ae009000008040009000780046
:102054001e00900000804000104078000004e00062
:10206400020032000000eb000c0037001e0090005c
:102074000000e80010079800ee0090001e00900099
:10208400808f5000c4ff3c001e0fe8006e009000db
:102094009e0f5000bdff3c00100020000080fa009d
:1020a400000006000400fa000000eb00000f7800b6
:1020b400270037000000eb00100798001f003700ce
:1020c4009e007800000620000088b9008000780097
:1020d4001e0090000080400081872000614078004d
:1020e4000004e000120032009e0078000006200088
:1020f4000088b900800078001e0090000080400035
:1021040081872000614078000000fb0080004000cf
:1021140000c9220000804000100178001e007800f1
:10212400804078001e0090000040780054020700b0
:102134001e0090000000e800100798009e00900028
:10214400f0052000808f5000ddff34001e0fe800f2
:10215400f00520009e007800808f5000d5ff3400e9
:102164000080fa00000006000400fa000000eb0002
:10217400000f7800210037000000eb0010079800e2
:1021840019003700e16381001e0078000000400060
:1021940000804000900078001e0090000080400005
:1021a400104078000004e0000c003200d26381008b
:1021b40000648100804078001e00780000407800b0
:1021c40080c0400010648100804178001e009000af
:1021d4000040780000c04100290207001e00900062
:1021e4000000e80010079800f16381001e009000d1
:1021f400808f5000e3ff3c001e0fe800f063810075
:102204009e0f5000dcff3c000080fa000000060036
:102214000a00fa000000eb00000f78005d003700b0
:102224000000eb00200798000000eb001007980066
:10223400100037009e007800000620000088b900d6
:10224400800078001e0090000080400081872000fc
:10225400614078000004e000030032002e0090008a
:102264000000e800200798001e0090000000e8002d
:10227400100798009e009000f0052000808f500009
:10228400ecff3400ae00900000062000808f500068
:102294003f003a009e007800410798001f00370075
:1022a4000000eb0030079800150037004e00900046
:1022b4008000e900000620000088b9008000780052
:1022c4003e0090000080400081872000614178003a
:1022d400ce00900083872000000620000088b9000b
:1022e400800078003e0090000080400000804100a3
:1022f400024878003e0090000000e8003007980093
:10230400be009000f0052000808f5000e7ff3400ed
:102314004e0090000000e900400798004e00900035
:102324000000e000deff3c000000eb0030079800f6
:102334000d003700ce0090008287200000062000a8
:102344000088b900800078003e00900000804000c2
:10235400000041008040eb00014878003e009000fe
:102364000000e80030079800be009000f00520004f
:10237400808f5000efff3400425484003e009000f0
:10238400804078004e00900000407800bc010700b7
:102394001e0fe800f00520009e007800808f50009a
:1023a4009fff34000080fa00000006000600fa00d7
:1023b400000f780011079800220798001e0078008b
:1023c400b01188001e009000001288002e009000ba
:1023d400501288000080fa00000006001c00fa0079
:1023e400700798000e80e800c1638100d263810009
:1023f400e3638100f4638100056481001664810055
:1024040017fd07007e009000e30f500085003200a6
:10241400e30f500005003c00e10f500008003200bb
:10242400e20f50006f003200a1003700e40f5000ab
:102434008c003200e50f5000920032009c003700ff
:102444005e0090000000e800500798001e00900015
:10245400ae0090003e019000ce0190005e0290001c
:10246400ee029000bdfe07000000e0000400320010
:10247400006481000000e800006489008c003700db
:1024840090fd070062ff0700c0638100d1638100f3
:10249400e2638100f36381000464810015648100b8
:1024a40070fd070040c8220081c72200b0187800e0
:1024b400a0107800e480400064004000b018780068
:1024c400a0107800e480400064004000b018780058
:1024d400a0107800e4804000640040002000200048
:1024e400106489000000eb00006489003ffa0700d3
:1024f4007100200001017800110009000200d800d9
:102504008000fd00f00347006c00b90080007800f3
:10251400c0aa2800008040009000780010019000bc
:10252400a001900030029000c0029000500390007f
:1025340007007800cafc07007000470041c8220069
:10254400b0187800a0107800e480400064004000d7
:10255400b0187800a0107800e480400064004000c7
:10256400b0187800a0107800e480400064004000b7
:10257400c0638100d1638100e2638100f363810061
:10258400046481001564810074fe07000000e0000b
:1025940001003a000468ef0021648100010f780013
:1025a4001e0078008000400000cc22000080400023
:1025b400100178001e0078008000400000cb22004b
:1025c40000804000900078001e00780080014000e8
:1025d40000ca2200008041001000780073ff070049
:1025e400330037006e0090000000e8006007980098
:1025f4001e009000ae0090003e019000ce019000bd
:102604005e029000ee02900054fe07000000e0001d
:1026140024003200106481000000e8001064890086
:10262400230037006e0090000000e9006007980066
:102634001e009000ae0090003e019000ce0190007c
:102644005e029000ee02900044fe07000000e000ed
:1026540016003200106481000000e9001064890053
:1026640013003700c0638100d1638100e2638100fd
:10267400f36381000464810015648100b6fd0700e2
:102684000b003700c0638100d1638100e2638100e5
:10269400f3638100046481001564810035fd070043
:1026a40003003700000000000100370000000000b4
:1026b4001e009000ae0090003e019000ce019000fc
:1026c4005e029000ee029000e6fc070075fe070033
:1026d4000080fa00000006000200fa0080002000da
:1026e400603a88004627a8000000eb00000f78003d
:1026f400010037001e0fe800703e20009e007800a5
:10270400808f5000fbff34004627a9000000eb0037
:10271400000f7800010037001e0fe800703e200013
:102724009e007800808f5000fbff34000000000002
:10273400303a8000610060000000e000fcff3200dd
:10274400903880000080fa00000006001200fa00b1
:10275400db0507004006200001002000004088003f
:102764001140880010c0b30004e8b70084fc0700df
:102774009ef9070071002000010178001100090092
:102784000200d8008000fd00e60347006c00b90099
:1027940080007800c0aa28000080400090007800e3
:1027a40010019000a001900030029000c00290003f
:1027b400500390000700780029fc070066004700da
:1027c40041c82200b0187800a0107800e4804000ce
:1027d40064004000b0187800a0107800e480400045
:1027e40064004000b0187800a0107800e480400035
:1027f4006400400021648100210798002e009000ad
:102804008000400000cc22000080400010017800cd
:102814002e0090008000400000cb22000080400089
:10282400900078002e0090008001400000ca220031
:102834000080410010007800dcfe07000000eb007f
:10284400000f7800150037000000eb001007980017
:102854000d0037009e0078008287200000062000cb
:102864000088b900800078001e00900000804000bd
:10287400000041008040eb00014878001e009000f9
:102884000000e800100798009e009000f00520006a
:10289400808f5000efff34001e0fe800f005200089
:1028a4009e007800808f5000e7ff34000080fa001b
:1028b400000006000e00fa0061fb0700ddfb0700c4
:1028c400a0b028008002eb000002780013c0b3001f
:1028d40012c0b30021c3b30030c2b3009b0307008e
:1028e4007705070026fc070040f907007100200067
:1028f40001017800110009000200d8008000fd00e9
:102904008e83e8006c00b90080007800c0aa28001b
:10291400008040009000780010019000a001900019
:1029240030029000c002900050039000070078002d
:10293400cbfb07000e80e80041c82200b0187800e5
:10294400a0107800e480400064004000b0187800d3
:10295400a0107800e480400064004000b0187800c3
:10296400a0107800e48040006400400021648100ed
:10297400010f78001e0078008000400000cc220087
:1029840000804000100178001e00780080004000a4
:1029940000cb220000804000900078001e007800e8
:1029a4008001400000ca220000804100100078002d
:1029b4007efe0700ffff37000400fa00204798005e
:1029c400314798002e4090008080fb003e409000ec
:1029d4000000fb00008f4000607a2800104078005f
:1029e4000080fb009e0f500003003d00607a280029
:1029f40010407800080037001e0078000000e00056
:102a040002003d000040eb0003003700be40900090
:102a14002e40900000c040000080fa000000060034
:102a24000200fa00004f780011479800607a2800ed
:102a3400104078009e40780080cf500005003e0092
:102a4400707a2800104078009e40900080cf50009b
:102a5400020036000000eb0007003700f1c5b300a8
:102a64001e4078009c040700f1c5b3001e4090008e
:102a740084040700c00407000080fa000000060078
:102a84000400fa00004f78001147980012079800dc
:102a9400607a2800104078009e40780080cf500073
:102aa4000e003e00707a2800104078009e4090008e
:102ab40080cf50000b003e00f1c5b3001e407800eb
:102ac40085040700f1c5b3001e4090006d040700a3
:102ad4001e009000c204070003003700000000003d
:102ae40001003700000000000080fa00000006002a
:102af4000e00fa00004f9800114f9800224f9800e2
:102b0400630798000e4890008080fb002e489000d8
:102b14000080fb0080805000607a2800104078001c
:102b24000080fb00808f500070003c001e48900025
:102b34008080fb002e4890000080fb0080805000c5
:102b4400707a2800104078000080fb00808f5000cd
:102b540068003c002e4890000004e00001003a00a8
:102b640010c0b300204f98002e4890008040780099
:102b74000e48900090ff0700204798002e489000d0
:102b84000040ea00804078000e4890008aff070069
:102b9400304798002e489000804078001e489000ee
:102ba40085ff0700404798002e4890000040ea0047
:102bb400804078001e4890007fff0700504798002f
:102bc400be409000014f7800430037000e4890004b
:102bd4009e4f5000030039000e4890001e405000e4
:102be400030037009e4078000e48900000c050005b
:102bf40060479800de40900011479800310037008c
:102c04009e4890001e40900080cf50000400390080
:102c14009e4890001e40900000c050000300370002
:102c24009e4090001e48900000c0500070479800dd
:102c34007e4090008080fb006e4090000080fb008e
:102c4400808040002e4890000080fb00808f500060
:102c5400150034007e4090008080fb007e40900090
:102c64000080fb000088b900000178006e409000ed
:102c74008080fb006e4090000080fb000088b9005b
:102c840000007800000141002e4890008080fb0085
:102c94002e4890000080fb000088b90000007800f6
:102ca400800f510004003c006e0190009e40900093
:102cb4001e40780072ff07001e4090000040e800ac
:102cc400104798009e4090004e40900080cf5000e6
:102cd400cbff39001e4fe8002e4090009e40780044
:102ce40080cf5000b9ff3900030037000000000016
:102cf40001003700000000000080fa000000060018
:102d04000c00fa006047980071479800024f980041
:102d1400530798000040eb00104798000040eb0078
:102d2400204798000040eb00304798000000eb007b
:102d3400200798000e4890000004e00001003a00cb
:102d440010c0b300004f98000e4890000040e80007
:102d5400004f78000040eb00104798000040eb0063
:102d6400204798000000eb00200798006700370018
:102d74001e4090000000fb00000040000000e8003e
:102d8400ae00900000804000200798001e40900094
:102d94000040e800104798002e0090000000e0007a
:102da4005a0035004c003700ae409000314798007f
:102db40043003700ae4090007e40900080c0400049
:102dc4003e4190006e409000004041005e01900042
:102dd4002bff07002e409000fe40900080c0500062
:102de4003e4190006e409000004041005e01900022
:102df40023ff0700ae4090007e40900080c040005a
:102e04003e4090006e419000004051005e019000f1
:102e14001bff07002e409000fe40900080c0500031
:102e24003e4090006e419000004051005e019000d1
:102e340013ff0700be4090007e40900080c0400019
:102e44002e4190006e409000004041005e019000d1
:102e54000bff07003e409000fe40900080c05000f1
:102e64002e4190006e409000004041005e019000b1
:102e740003ff0700be4090007e40900080c04000e9
:102e84002e4090006e419000004051005e01900081
:102e9400fbfe07003e409000fe40900080c05000c2
:102ea4002e4090006e419000004051005e01900061
:102eb400f3fe07003e4090000040e80030479800d1
:102ec4003e4090009e4f5000baff35002e409000c7
:102ed4000040e80020479800ae4090001e4090005b
:102ee40080cf5000b0ff35009e00fb00e0ff2f00b4
:102ef4000088b900000078000000e800ae009000ef
:102f040000804000200798001e4fe9001e409000fa
:102f14009e40780080cf500095ff3d000080fa006d
:102f2400000006000a00fa00404798005147980044
:102f34006247980073479800440798007e409000c9
:102f44000080fb000000d10000407800ee409000bb
:102f540000c040006047980064003700ee409000d5
:102f6400014f78000040eb00104798000000eb0090
:102f740010079800560037009e4090005e40900075
:102f840080c040001e4178004e4090000040410047
:102f94004e019000bafe07001e409000de409000f3
:102fa40080c050001e4178004e4090000040410017
:102fb4004e019000b2fe07009e4090005e409000db
:102fc40080c040001e4078004e41900000405100f7
:102fd4004e019000aafe07001e409000de409000c3
:102fe40080c050001e4078004e41900000405100c7
:102ff4004e019000a2fe07009e4078005e409000c3
:1030040080c040001e4190004e40900000404100ae
:103014004e0190009afe07001e407800de409000aa
:1030240080c050001e4190004e409000004041007e
:103034004e01900092fe07009e4078005e40900092
:1030440080c040001e4090004e419000004051005e
:103054004e0190008afe07001e407800de4090007a
:1030640080c050001e4090004e419000004051002e
:103074004e01900082fe07001e4090000000fb00fd
:10308400000040000000e8009e0090000080400026
:10309400100798001e4090000040e8001047980078
:1030a4001e0090000000e000090035009e00fb00b7
:1030b400e0ff2f000088b900000078000000e8005d
:1030c4009e00900000804000100798001e4fe90009
:1030d4001e4090009e40780080cf5000a6ff3d0027
:1030e4006e4090000040e900604798007e409000e8
:1030f4000080fb000000ea004f00de000040780082
:10310400fe4090008140e900714798000004e0000f
:1031140092ff3a000080fa00000006000600fa0060
:1031240010079800210798001e009000104f7800a7
:103134002e009000904078001e0090000148780016
:103144002e0090001e4878000080fa00000006005f
:103154000800fa00000f7800110798002207980071
:10316400330798001e007800904078002e009000ed
:103174001040780080cf500006003600ae0090006a
:103184001e007800e5ff0700be0090001e009000be
:10319400e2ff07000080fa00000006000800fa00c1
:1031a400000f780011079800220798003307980051
:1031b4001e009000904078003e009000104078007f
:1031c40080cf500006003600ae0090001e0078004c
:1031d400d2ff0700be0090001e009000cfff070042
:1031e4000080fa00000006000600fa00004f780094
:1031f4001147980022479800230798002e4090001a
:10320400e14f500005003e002e0190009e409000ca
:103214001e4078001afe0700090037002e40900077
:103224000080fb000000d10000407800ae01900057
:10323400004178009e4090001e407800b0fe0700d8
:103244000080fa00000006001000fa00889fbe000b
:10325400004f9800114f9800224f9800334f980068
:10326400444f9800750798004e4890000004e00011
:1032740001003a0010c0b300404f9800ae489000df
:103284000e48900000c0500020479800be489000af
:103294001e48900000c05000304798003e40900007
:1032a4000004e00017003a002e4090000004e00003
:1032b4009a003200eb0147006a014700e900470029
:1032c40068004700a2ff07008e489000014f780075
:1032d400070037001e489000fe0190004e49900000
:1032e400804078001e407800bfff07001e4fe800b2
:1032f4002e4890009e40780080cf5000f5ff3600a5
:10330400890037002e4090000004e00018003a00c5
:103314003e4090000004e00082003200eb014700d0
:103324006a014700e9004700680047009bff070067
:103334009e48900011479800080037000e489000fe
:10334400fe0190004e4990009e409000a6ff0700a9
:103354001e4090000040e800104798003e4890004e
:103364009e40900080cf5000f4ff36006e0037007e
:103374002e4090000000fb008000780001f0a700c0
:103384008100ea003e4090000000fb0000f0a7002e
:103394000000ea00808f50002f0034003e4090006f
:1033a4000000fb00cf80de0031f507000004be0002
:1033b4002e4090000000fb00cf80de002cf50700bb
:1033c4000001be000800be00c6f4070020079800f4
:1033d40031079800eb0147006a014700e900470004
:1033e400680047005aff07008e489000014f78009c
:1033f400140037009e80fb000e4890000080fb0004
:1034040000805000cf80de0019f507002e019000e7
:10341400be0190006cf50700f4f40700000078008a
:10342400804078001e48900000c04000fe019000db
:103434004e499000804078001e4078006aff0700e3
:103444001e4fe8002e4890009e40780080cf500028
:10345400e8ff3900340037002e4090000000fb00e4
:10346400cf80de0002f507000004be003e4090005d
:103474000000fb00cf80de00fdf407000001be0069
:103484000800be0097f40700200798003107980051
:10349400eb0147006a014700e90047006800470064
:1034a4003eff07009e489000114798001600370021
:1034b4001e4090008080fb001e4890000080fb00ae
:1034c40000805000cf80de00e9f407002e01900058
:1034d400be0190003cf50700c4f40700000078002a
:1034e400804078000e48900000c04000fe0190002b
:1034f4004e4990009e4090003bff07001e40900004
:103504000040e800104798003e4890009e4090001c
:1035140080cf5000e6ff39000300370000000000b0
:1035240001003700000000004f04be000080fa00d4
:10353400000006000800fa00204798003147980070
:10354400424798005347980034079800ce409000b3
:103554002e409000e0010700de4090003e409000c5
:10356400c8010700ae409000014f780010003700fa
:10357400be40900011479800050037003e009000bf
:10358400170207001e4090000040e8001047980012
:103594001e4090008080fb005e4090000080fb0095
:1035a4000000e800808f5000f4ff35001e4fe80053
:1035b4009e80fb004e4090000080fb000000e8006d
:1035c400808f5000eaff35000080fa0000000600fa
:1035d4001000fa00004f9800114f9800224f9800f5
:1035e400334f9800444f9800750798004e48900058
:1035f4000080fb0001fe2f0080804000807a2800bc
:10360400104078000080fb000088b90000007800ba
:1036140080007800a07a2800008f40000000eb00b2
:10362400100798003c0037001e0078009040780096
:10363400614798001e0fe800907a28001040780037
:103644008080fb003e4890000080fb000088b900a9
:103654000000780020079800270037006e40900093
:103664000080fb0061006000004078000004e0007e
:10367400180032002e009000804078001e48900010
:1036840080c040003e48900000c040008041e900f6
:103694001e009000804078000e48900080c04000da
:1036a4002e48900000c040000041e9002e00900028
:1036b400804078001e48900080c040001e009000aa
:1036c400004278000e489000004042007e029000c4
:1036d40098ff07006e4090000080fb000000d100be
:1036e400604798003e4890000080fb00ae009000c8
:1036f40000805000200798002e0090000000e00099
:10370400d6ff3a002e4890000080fb009e009000f7
:103714000080400010079800807a2800104078004c
:103724008080fb002e4890000080fb000088b900d8
:1037340000007800800078001e009000808f500008
:10374400b9ff3e000080fa00000006000800fa00fd
:10375400004f78001147980022479800334798009b
:103764002407980035079800150037002e009000b4
:1037740010407800ae0090008100e8002107980016
:10378400be02900000427800be4190002e4190009d
:103794009e4090001e4078008dff0700807a28002c
:1037a40010407800ae4090008180fb000088b90092
:1037b40000007800004078001e404000004fe80000
:1037c4002e009000104078000004e000e7ff3a006b
:1037d4000080fa00000006001400fa00204f980050
:1037e400314f980062079800634f9800744f980017
:1037f400050f98002657980000c2b3006047980050
:103804006e4890000004e000020032006e48900010
:103814000100370010c0b300604f98007e4890004c
:103824000004e000020032007e48900001003700ee
:1038340010c0b300704f98000040eb00004f7800b8
:10384400510037000e0890001001be0012079800c6
:10385400230798000e08900064004000000f9800b1
:103864001e407800fe4890008180fb000088b9006b
:1038740000007800804078003e48900000c040007e
:10388400704798000040eb0010479800390037005b
:103894001e019000ae0190001000200001002000e5
:1038a40002027800030178008001780001007800aa
:1038b40003026200000061008000eb00c000dd0034
:1038c400000020000001be006120b800000171006a
:1038d40081817100e00f5100e08f59001c003a0013
:1038e4006e4090008080fb001e4090000080fb0032
:1038f4000080500000407800ee4890008180fb007a
:103904000088b90000007800804078002e489000bc
:1039140000c04000004f9800fe4090007e48900098
:1039240000c040008040e9000e4990006e489000bd
:10393400004041000040e9006e029000814178009f
:1039440000417800fe4090000e489000f9fe070008
:103954001e009000ae0090008100d1000080d300d2
:1039640010079800210798001e4090000040e800ce
:10397400104798009e4090006e40900080cf500009
:10398400c3ff39001e4fe8002e5090009e4078007f
:1039940080cf5000abff39000080fa000000060021
:1039a4000200fa00000f7800c00520009e00780095
:1039b400808f500004003200d00520009e00780063
:1039c400808f500009003a00c00520009e00780056
:1039d400808f500002003a0010c0b300010037008d
:1039e40020c0b30006e8b700010037000668ef0006
:1039f4000080fa00000006000200fa00004f780080
:103a040011479800090107000004a2000004e00027
:103a1400020032000080eb000c0037001e407800ea
:103a2400eb010700004f78001e409000e8010700fa
:103a340010479800d20107001e80fb00c800dd007b
:103a44001e4090000080fb00010070000080fa001e
:103a5400000006000200fa0020c3b300004f780003
:103a640012c0b3008e007800000a20006600070030
:103a740000c2b300004f780012c0b3008e0078007b
:103a8400100a2000600007000080fa000000060011
:103a94000000fa000041eb008000eb00c0052000ac
:103aa400590007008f26a9008e66a8000080fa003e
:103ab400000006000000fa000041eb008000eb006b
:103ac400d0052000500007008f26a9008e66a800ac
:103ad4000080fa00000006000800fa0000017800e7
:103ae400310798003e0090004800de00004f780047
:103af4003e009000104798001e80fb004300de004b
:103b040000407800204798001e80fb00670060009a
:103b14004300dd00804078001e4090000080fb00e0
:103b24004500de000040780000c070003047980077
:103b34001e4090007f406000404798000e80e800df
:103b440082007800904878008100e8000000e800d6
:103b5400904878008100e8000000e8009048780070
:103b64008100e8000000e800020078000080fa000c
:103b7400000006000600fa0020479800314798002c
:103b8400424798002e4090007f40600020479800f4
:103b94003e409000f043b200304798004e40900001
:103ba4007f406000404798002e4090000080fb005a
:103bb4004300dd00804078003e4090000080fb0020
:103bc4004300de000040780000c07000004f780021
:103bd4003e4090000080fb004500dd0080407800fe
:103be4004e40900000c07000104798001e80fb00fb
:103bf400c800dd001e4090000080fb000100700042
:103c04000080fa00000006000600fa00000f7800a9
:103c14001107980042479800840007000004a2009e
:103c24000004e00014003a008f26a9008e66a90063
:103c34001e00780000407800650107004e409000a7
:103c44000004e000070032008e66a8004e40900099
:103c54000080fb00800078001e00900082010700b5
:103c64008e66a9008f26a800450107001e00780073
:103c74004bff070001003700000000000080fa003d
:103c8400000006000400fa0020479800314798001d
:103c94002e409000f1c5b300814f50000100360062
:103ca400f0c5b300004f78003e409000f1c5b3006a
:103cb400814f500001003600f0c5b3001047980052
:103cc40022c0b3008e00780050072000ceff07000a
:103cd4000080fa00000006000400fa002047980063
:103ce400314798002e409000f1c5b300814f500039
:103cf40001003600f0c5b300204798003e40900014
:103d0400f1c5b300814f500001003600f0c5b30087
:103d1400304798002e40900070404000004f7800db
:103d24003e409000704040001047980022c0b3000d
:103d34008e00780050012000b3ff07000080fa00d5
:103d4400000006000200fa00004f78001e407800d0
:103d54000004e00002003200e00a20000100370005
:103d6400f00a20000041eb008000eb00a6ff0700f2
:103d74000080fa00000006000000fa0006c8bf0038
:103d8400e24f5000010032004aff070006c8bf009e
:103d9400e24f5000020032000080eb0003003700c5
:103da40080c0eb0000c0eb0013ff07000080fa00a6
:103db400000006000400fa00004f78001147980044
:103dc400224798002e4190009e4090001e407800ab
:103dd40068ff0700020007000080fa0000000600e8
:103de4000200fa00000f780006c8bf00e14f50003f
:103df4000100320026ff070006c8bf00e14f500053
:103e040007003a001e007800804078001e00780009
:103e14004800de0000407800f7fe0700010037008c
:103e2400000000000080fa00000006000000fa0014
:103e3400d70007000080fa00000006000000fa0026
:103e440063a6a90077a6a90077e6a9008a26a90097
:103e54008a66a9008b06a9008b26a9008f06a900f3
:103e640067a6a8008e26a900100020007401070090
:103e740067a6a900200020008201070067a6a80009
:103e84008f06a800100020006d0107000040eb0021
:103e9400acff0700800c200069010700f1c5b300e6
:103ea4000040eb008cff0700f1c5b3000040eb00bd
:103eb40074ff0700e7fe07000080fa000000060018
:103ec4000200fa0001c6b3000040eb0082ff0700c5
:103ed40001c6b3000040eb006aff07000040eb009e
:103ee400004f78000d0037000040eb0010479800a9
:103ef4000500370040408000b9ff07001e409000d5
:103f04000040e800104798009e409000f0c5b300c0
:103f140080cf5000f7ff36001e4fe800f0c5b30015
:103f24009e40780080cf5000efff36000080fa00fa
:103f3400000006000200fa00000f78009e007800de
:103f440041408800deff07000080fa000000060000
:103f54000000fa00404080000080fa0000000600e3
:020000040000fa
:103f64000608000004000000800000000a080000a9
:103f74000200000080000000902c00002c010000d2
:103f8400820000000000ea00fb1f0000000419008a
:103f9400fe45a1001080000088000000ff00000022
:103fa40000000000ff00a500008000008b0000005e
:103fb400007f00000000800000c000002a00000014
:103fc400000000000000500000ff00000000cb00d3
:103fd400002a000080000000000000000101010030
:103fe40001000000010101000101010001010000c4
:103ff400000101000101000000d02c00d62cdc00df
:104004002ce22c000c081200080101000101000040
:104014000001010001010000000000000101010095
:10402400010000000101010001f42c00fa2c000041
:104034002d062d0018081e000800000001010000d4
:104044000000000001010000000101000101010065
:10405400010101000101010001182d001e2d2400a1
:104064002d2a2d0024082a00080000000000010069
:104074000100000000000100010101000101010034
:104084000101010001010100013c2d00422d480005
:104094002d4e2d00300836000801010000000000fc
:1040a4000001010000000000000101000101010005
:1040b400010101000101010001602d00662d6c0069
:1040c4002d722d003c08420008010100010101008d
:1040d400010101000101010001010100010184004d
:1040e4002d882d008c2d90002d010100010101006f
:1040f4000101010001010100010101000101480069
:10410400085008009c2da4002d5808006008680081
:10411400087008000c0800008424000080000000df
:1041240000080000060000008200000010270000c4
:10413400000100004e2e000002000000820000007a
:1041440004000000462e000004000000800000006f
:104154004a2e00000400000082000000010000005c
:1041640000000000bc2d00008a0000008000000058
:10417400502e00000200000080000000000000003b
:020000040000fa
:104184000000fa00f5e3a9000080fa000000060030
:104194000000fa00a11f80000000280000806000d9
:1041a4000000e00007003a0000122000a01f880071
:1041b4000424ef0077e6a900f5e3a80010c0b300db
:1041c400010037000040eb000080fa000000060008
:1041d4000200fa00004f78001e80fb0000208800d7
:1041e40000000000e01f8000610060000000e000ab
:1041f400fcff320000208000004078000080fa00bc
:10420400000006000600fa00100798002107980035
:104214009e009000010f7800060037001e00780011
:1042240010407800eaff07009e007800804878007c
:104234001e0fe8002e00900000f0a7000000ea0026
:104244000000ea004f00de0000407800ae0090005d
:104254008100e900210798000004e000efff3a0024
:104264000080fa00000006000600fa00100798001b
:10427400210798009e009000010f78000400370089
:104284001e007800104078001e0fe800d0ff0700e1
:104294002e00900000f0a7000000ea000000ea00f1
:1042a4004f00de0000407800ae0090008100e9007d
:1042b400210798000004e000f1ff3a000080fa00b2
:1042c400000006000600fa00100798002107980075
:1042d4009e009000010f7800050037000040eb00bd
:1042e400bbff07009e007800804878001e0fe8009e
:1042f4002e00900000f0a7000000ea000000ea0091
:104304004f00de0000407800ae0090008100e9001c
:10431400210798000004e000f0ff3a000080fa0052
:10432400000006000200fa00004f78001e80fb0027
:10433400002088000080fa00000006000000fa0057
:1043440000208000004078000080fa000000060091
:104354000000fa006626ef007a26ef008e26ef00b2
:104364000080eb00103388000080eb00b03388003d
:104374000080eb00503488007426ef008826ef009c
:104384009c26ef007226ef008626ef009a26ef00a7
:104394006826ef007c26ef009026ef0001088000dd
:1043a400f00b2000008160006004200071052000f3
:1043b4000310200080497800814978008249780000
:1043c400113f800000f82f00008060007000b300ef
:1043d400103f8800113f8000f00f2800008060002b
:1043e40000b0a000103f8800c13d800000fc2f00f9
:1043f40000806000d000b300c03d88000008800049
:10440400000178000260a000600420007105200013
:10441400031020008049780081497800824978009f
:104424000080fa00000006000000fa00c8ff070040
:104434002e00070081fe07000080fa00000006003d
:104444000200fa00000f78000300370000fa200091
:1044540001002000480007001e00780000f0a700bb
:104464000000ea000000ea004f00de00004078008f
:104474001e0fe9000004e000f4ff3a000080fa0097
:10448400000006000200fa00000f78000500370063
:1044940000082000010020003700070001fe2f0063
:1044a4001e8f40001e007800ff0f5000f8ff3e00f2
:1044b4000300370040002000010020002e00070008
:1044c4001e00780000f0a7000000ea000000ea00e7
:1044d4004f00de00004078001e0fe9000004e000f9
:1044e400f4ff3a000080fa00000006000000fa0021
:1044f40000002300100888000621ef006821ef0067
:104504006a21ef000821ef000070200050088800a5
:104514000c21ef000e21ef007821ef007a21ef004b
:104524007c21ef007e21ef008021ef008221ef004b
:104534008421ef008621ef000001eb0080072000ba
:10454400a1092000131020008049780081497800d7
:10455400824978000001eb0060042000710520000e
:10456400031020008049780081497800824978004e
:084574000080fa0000000600bf
:020000040000fa
:10457c00f03fb1000180b10006003500ee030900e8
:10458c0000000000403fb1000180b100fbff3d0086
:10459c001000b000203fb000020035000080090080
:0845ac00000000000000060001
:020000040000fa
:020000040005f5
:045e0000ffffff00a1
:020000040000fa
:020000040005f5
:045e2000ffffff0081
:020000040000fa
:020000040005f5
:045e300078ffff00f8
:020000040000fa
:020000040005f5
:045e38004bffff001d
:020000040000fa
:020000040005f5
:045e40009fffff00c1
:020000040000fa
:020000040005f5
:045e4800ffffff0059
:020000040000fa
:020000040005f5
:045e5000deffff0072
:020000040000fa
:020000040005f5
:045e5800ffffff0049
:00000001FF
